{
  "address": "0x78C65328506a0b277E1AcC44927E8D8f85937B70",
  "abi": [
    {
      "inputs": [
        {
          "internalType": "address payable",
          "name": "_creator",
          "type": "address"
        },
        {
          "internalType": "uint256",
          "name": "_initialPrice",
          "type": "uint256"
        },
        {
          "internalType": "uint256",
          "name": "_creatorCutPer10000th",
          "type": "uint256"
        }
      ],
      "stateMutability": "nonpayable",
      "type": "constructor"
    },
    {
      "anonymous": false,
      "inputs": [
        {
          "indexed": true,
          "internalType": "address",
          "name": "owner",
          "type": "address"
        },
        {
          "indexed": true,
          "internalType": "address",
          "name": "approved",
          "type": "address"
        },
        {
          "indexed": true,
          "internalType": "uint256",
          "name": "tokenId",
          "type": "uint256"
        }
      ],
      "name": "Approval",
      "type": "event"
    },
    {
      "anonymous": false,
      "inputs": [
        {
          "indexed": true,
          "internalType": "address",
          "name": "owner",
          "type": "address"
        },
        {
          "indexed": true,
          "internalType": "address",
          "name": "operator",
          "type": "address"
        },
        {
          "indexed": false,
          "internalType": "bool",
          "name": "approved",
          "type": "bool"
        }
      ],
      "name": "ApprovalForAll",
      "type": "event"
    },
    {
      "anonymous": false,
      "inputs": [
        {
          "indexed": true,
          "internalType": "uint256",
          "name": "id",
          "type": "uint256"
        },
        {
          "indexed": true,
          "internalType": "uint256",
          "name": "priceReceived",
          "type": "uint256"
        }
      ],
      "name": "Burned",
      "type": "event"
    },
    {
      "anonymous": false,
      "inputs": [
        {
          "indexed": true,
          "internalType": "address",
          "name": "previousCreator",
          "type": "address"
        },
        {
          "indexed": true,
          "internalType": "address",
          "name": "newCreator",
          "type": "address"
        }
      ],
      "name": "CreatorshipTransferred",
      "type": "event"
    },
    {
      "anonymous": false,
      "inputs": [
        {
          "indexed": true,
          "internalType": "uint256",
          "name": "id",
          "type": "uint256"
        },
        {
          "indexed": true,
          "internalType": "uint256",
          "name": "pricePaid",
          "type": "uint256"
        }
      ],
      "name": "Minted",
      "type": "event"
    },
    {
      "anonymous": false,
      "inputs": [
        {
          "indexed": true,
          "internalType": "address",
          "name": "from",
          "type": "address"
        },
        {
          "indexed": true,
          "internalType": "address",
          "name": "to",
          "type": "address"
        },
        {
          "indexed": true,
          "internalType": "uint256",
          "name": "tokenId",
          "type": "uint256"
        }
      ],
      "name": "Transfer",
      "type": "event"
    },
    {
      "inputs": [
        {
          "internalType": "address",
          "name": "operator",
          "type": "address"
        },
        {
          "internalType": "uint256",
          "name": "id",
          "type": "uint256"
        }
      ],
      "name": "approve",
      "outputs": [],
      "stateMutability": "nonpayable",
      "type": "function"
    },
    {
      "inputs": [
        {
          "internalType": "address",
          "name": "owner",
          "type": "address"
        }
      ],
      "name": "balanceOf",
      "outputs": [
        {
          "internalType": "uint256",
          "name": "balance",
          "type": "uint256"
        }
      ],
      "stateMutability": "view",
      "type": "function"
    },
    {
      "inputs": [
        {
          "internalType": "uint256",
          "name": "id",
          "type": "uint256"
        }
      ],
      "name": "burn",
      "outputs": [],
      "stateMutability": "nonpayable",
      "type": "function"
    },
    {
      "inputs": [],
      "name": "creator",
      "outputs": [
        {
          "internalType": "address payable",
          "name": "",
          "type": "address"
        }
      ],
      "stateMutability": "view",
      "type": "function"
    },
    {
      "inputs": [],
      "name": "creatorCutPer10000th",
      "outputs": [
        {
          "internalType": "uint256",
          "name": "",
          "type": "uint256"
        }
      ],
      "stateMutability": "view",
      "type": "function"
    },
    {
      "inputs": [],
      "name": "currentPrice",
      "outputs": [
        {
          "internalType": "uint256",
          "name": "",
          "type": "uint256"
        }
      ],
      "stateMutability": "view",
      "type": "function"
    },
    {
      "inputs": [
        {
          "internalType": "uint256",
          "name": "id",
          "type": "uint256"
        }
      ],
      "name": "getApproved",
      "outputs": [
        {
          "internalType": "address",
          "name": "",
          "type": "address"
        }
      ],
      "stateMutability": "view",
      "type": "function"
    },
    {
      "inputs": [
        {
          "internalType": "address",
          "name": "owner",
          "type": "address"
        },
        {
          "internalType": "uint256",
          "name": "start",
          "type": "uint256"
        },
        {
          "internalType": "uint256",
          "name": "num",
          "type": "uint256"
        }
      ],
      "name": "getTokenDataOfOwner",
      "outputs": [
        {
          "components": [
            {
              "internalType": "uint256",
              "name": "id",
              "type": "uint256"
            },
            {
              "internalType": "string",
              "name": "tokenURI",
              "type": "string"
            }
          ],
          "internalType": "struct BitmapToken.TokenData[]",
          "name": "tokens",
          "type": "tuple[]"
        }
      ],
      "stateMutability": "view",
      "type": "function"
    },
    {
      "inputs": [],
      "name": "initialPrice",
      "outputs": [
        {
          "internalType": "uint256",
          "name": "",
          "type": "uint256"
        }
      ],
      "stateMutability": "view",
      "type": "function"
    },
    {
      "inputs": [
        {
          "internalType": "address",
          "name": "owner",
          "type": "address"
        },
        {
          "internalType": "address",
          "name": "operator",
          "type": "address"
        }
      ],
      "name": "isApprovedForAll",
      "outputs": [
        {
          "internalType": "bool",
          "name": "isOperator",
          "type": "bool"
        }
      ],
      "stateMutability": "view",
      "type": "function"
    },
    {
      "inputs": [
        {
          "internalType": "address",
          "name": "to",
          "type": "address"
        },
        {
          "internalType": "bytes",
          "name": "signature",
          "type": "bytes"
        }
      ],
      "name": "mint",
      "outputs": [
        {
          "internalType": "uint256",
          "name": "",
          "type": "uint256"
        }
      ],
      "stateMutability": "payable",
      "type": "function"
    },
    {
      "inputs": [],
      "name": "name",
      "outputs": [
        {
          "internalType": "string",
          "name": "",
          "type": "string"
        }
      ],
      "stateMutability": "pure",
      "type": "function"
    },
    {
      "inputs": [
        {
          "internalType": "uint256",
          "name": "id",
          "type": "uint256"
        }
      ],
      "name": "ownerOf",
      "outputs": [
        {
          "internalType": "address",
          "name": "owner",
          "type": "address"
        }
      ],
      "stateMutability": "view",
      "type": "function"
    },
    {
      "inputs": [
        {
          "internalType": "address payable",
          "name": "_creator",
          "type": "address"
        },
        {
          "internalType": "uint256",
          "name": "_initialPrice",
          "type": "uint256"
        },
        {
          "internalType": "uint256",
          "name": "_creatorCutPer10000th",
          "type": "uint256"
        }
      ],
      "name": "postUpgrade",
      "outputs": [],
      "stateMutability": "nonpayable",
      "type": "function"
    },
    {
      "inputs": [
        {
          "internalType": "address",
          "name": "from",
          "type": "address"
        },
        {
          "internalType": "address",
          "name": "to",
          "type": "address"
        },
        {
          "internalType": "uint256",
          "name": "id",
          "type": "uint256"
        }
      ],
      "name": "safeTransferFrom",
      "outputs": [],
      "stateMutability": "nonpayable",
      "type": "function"
    },
    {
      "inputs": [
        {
          "internalType": "address",
          "name": "from",
          "type": "address"
        },
        {
          "internalType": "address",
          "name": "to",
          "type": "address"
        },
        {
          "internalType": "uint256",
          "name": "id",
          "type": "uint256"
        },
        {
          "internalType": "bytes",
          "name": "data",
          "type": "bytes"
        }
      ],
      "name": "safeTransferFrom",
      "outputs": [],
      "stateMutability": "nonpayable",
      "type": "function"
    },
    {
      "inputs": [
        {
          "internalType": "address",
          "name": "operator",
          "type": "address"
        },
        {
          "internalType": "bool",
          "name": "approved",
          "type": "bool"
        }
      ],
      "name": "setApprovalForAll",
      "outputs": [],
      "stateMutability": "nonpayable",
      "type": "function"
    },
    {
      "inputs": [
        {
          "internalType": "bytes4",
          "name": "id",
          "type": "bytes4"
        }
      ],
      "name": "supportsInterface",
      "outputs": [
        {
          "internalType": "bool",
          "name": "",
          "type": "bool"
        }
      ],
      "stateMutability": "pure",
      "type": "function"
    },
    {
      "inputs": [],
      "name": "symbol",
      "outputs": [
        {
          "internalType": "string",
          "name": "",
          "type": "string"
        }
      ],
      "stateMutability": "pure",
      "type": "function"
    },
    {
      "inputs": [
        {
          "internalType": "address",
          "name": "owner",
          "type": "address"
        },
        {
          "internalType": "uint256",
          "name": "index",
          "type": "uint256"
        }
      ],
      "name": "tokenOfOwnerByIndex",
      "outputs": [
        {
          "internalType": "uint256",
          "name": "",
          "type": "uint256"
        }
      ],
      "stateMutability": "view",
      "type": "function"
    },
    {
      "inputs": [
        {
          "internalType": "uint256",
          "name": "id",
          "type": "uint256"
        }
      ],
      "name": "tokenURI",
      "outputs": [
        {
          "internalType": "string",
          "name": "",
          "type": "string"
        }
      ],
      "stateMutability": "view",
      "type": "function"
    },
    {
      "inputs": [],
      "name": "totalSupply",
      "outputs": [
        {
          "internalType": "uint256",
          "name": "",
          "type": "uint256"
        }
      ],
      "stateMutability": "view",
      "type": "function"
    },
    {
      "inputs": [
        {
          "internalType": "address payable",
          "name": "newCreatorAddress",
          "type": "address"
        }
      ],
      "name": "transferCreatorship",
      "outputs": [],
      "stateMutability": "nonpayable",
      "type": "function"
    },
    {
      "inputs": [
        {
          "internalType": "address",
          "name": "from",
          "type": "address"
        },
        {
          "internalType": "address",
          "name": "to",
          "type": "address"
        },
        {
          "internalType": "uint256",
          "name": "id",
          "type": "uint256"
        }
      ],
      "name": "transferFrom",
      "outputs": [],
      "stateMutability": "nonpayable",
      "type": "function"
    }
  ],
  "transactionHash": "0x06b89e758c526cb20ebab248362cc77c11db387ff2e31223be1059739fc50644",
  "args": [
    "0x61c461EcC993aaDEB7e4b47E96d1B8cC37314B20",
    "10000000000000000",
    500
  ],
  "linkedData": {
    "initialPrice": "10000000000000000",
    "creatorCutPer10000th": 500
  },
  "solcInputHash": "848b45df93e838bbc19548815ab519ea",
  "bytecode": "0x60c06040523480156200001157600080fd5b5060405162002e6338038062002e6383398101604081905262000034916200013c565b6107d08110620000615760405162461bcd60e51b815260040162000058906200017f565b60405180910390fd5b608082905260a08190526200007883838362000081565b505050620001b6565b60006200008d62000128565b90506001600160a01b038116620000bd576001600160a01b0360008051602062002e4383398151915255620000d3565b336001600160a01b03821614620000d357600080fd5b600580546001600160a01b0319166001600160a01b0386811691909117918290556040519116906000907ff25c6226b06a6bf4b2c2391bb66962bb4290c323cf8b5814efb185aba3f42d5f908290a350505050565b60008051602062002e438339815191525490565b60008060006060848603121562000151578283fd5b83516001600160a01b038116811462000168578384fd5b602085015160409095015190969495509392505050565b60208082526015908201527f43524541544f525f4355545f524f4f5f48494748540000000000000000000000604082015260600190565b60805160a051612c5f620001e460003980610b06528061144d52508061063b52806114255250612c5f6000f3fe60806040526004361061018b5760003560e01c806342966c68116100d65780639d1b464a1161007f578063b88d4fde11610059578063b88d4fde14610422578063c87b56dd14610442578063e985e9c5146104625761018b565b80639d1b464a146103da578063a22cb465146103ef578063b510391f1461040f5761018b565b806370a08231116100b057806370a08231146103905780637e7e2d48146103b057806395d89b41146103c55761018b565b806342966c68146103305780636352211e146103505780636d2e4b1b146103705761018b565b80631d0806ae116101385780633a5110db116101125780633a5110db146102c357806340377094146102f057806342842e0e146103105761018b565b80631d0806ae1461026e57806323b872dd146102835780632f745c59146102a35761018b565b8063081812fc11610169578063081812fc1461020a578063095ea7b31461022a57806318160ddd1461024c5761018b565b806301ffc9a71461019057806302d05d3f146101c657806306fdde03146101e8575b600080fd5b34801561019c57600080fd5b506101b06101ab366004612164565b610482565b6040516101bd919061233d565b60405180910390f35b3480156101d257600080fd5b506101db6104e1565b6040516101bd9190612286565b3480156101f457600080fd5b506101fd6104f0565b6040516101bd9190612366565b34801561021657600080fd5b506101db61022536600461219c565b610527565b34801561023657600080fd5b5061024a610245366004612125565b61059a565b005b34801561025857600080fd5b50610261610633565b6040516101bd9190612837565b34801561027a57600080fd5b50610261610639565b34801561028f57600080fd5b5061024a61029e366004611ffc565b61065d565b3480156102af57600080fd5b506102616102be366004612125565b610779565b3480156102cf57600080fd5b506102e36102de366004612150565b6107a4565b6040516101bd91906122cc565b3480156102fc57600080fd5b5061024a61030b366004611f90565b6108a2565b34801561031c57600080fd5b5061024a61032b366004611ffc565b610962565b34801561033c57600080fd5b5061024a61034b36600461219c565b61097d565b34801561035c57600080fd5b506101db61036b36600461219c565b6109ff565b34801561037c57600080fd5b5061024a61038b366004611f74565b610a32565b34801561039c57600080fd5b506102616103ab366004611f74565b610abb565b3480156103bc57600080fd5b50610261610b04565b3480156103d157600080fd5b506101fd610b28565b3480156103e657600080fd5b50610261610b5f565b3480156103fb57600080fd5b5061024a61040a3660046120a6565b610b71565b61026161041d3660046120d7565b610b80565b34801561042e57600080fd5b5061024a61043d36600461203c565b610ce6565b34801561044e57600080fd5b506101fd61045d36600461219c565b610e43565b34801561046e57600080fd5b506101b061047d366004611fc4565b610e88565b600061048d82610eb6565b806104d957507f5b5e139f000000000000000000000000000000000000000000000000000000007fffffffff000000000000000000000000000000000000000000000000000000008316145b90505b919050565b6005546001600160a01b031681565b60408051808201909152601081527f4269746d61702041727420546f6b656e00000000000000000000000000000000602082015290565b600080600061053584610f97565b90925090506001600160a01b0382166105695760405162461bcd60e51b81526004016105609061257d565b60405180910390fd5b801561058f575050506000818152600460205260409020546001600160a01b03166104dc565b6000925050506104dc565b60006105a582610fcf565b90506001600160a01b0381166105cd5760405162461bcd60e51b81526004016105609061257d565b6001600160a01b03811633148061060757506001600160a01b038116600090815260036020908152604080832033845290915290205460ff165b6106235760405162461bcd60e51b815260040161056090612648565b61062e818484611004565b505050565b60005490565b7f000000000000000000000000000000000000000000000000000000000000000081565b60008061066983610f97565b90925090506001600160a01b0382166106945760405162461bcd60e51b81526004016105609061257d565b846001600160a01b0316826001600160a01b0316146106c55760405162461bcd60e51b815260040161056090612724565b6001600160a01b0384166106eb5760405162461bcd60e51b81526004016105609061267f565b336001600160a01b03861614610767576001600160a01b038516600090815260036020908152604080832033845290915290205460ff168061074b575080801561074b57506000838152600460205260409020546001600160a01b031633145b6107675760405162461bcd60e51b81526004016105609061275b565b6107728585856110e3565b5050505050565b6001600160a01b038216600090815260026020526040812061079b9083611178565b90505b92915050565b6001600160a01b03831660009081526002602052604081206060916107c882611184565b90508385018110156107ec5760405162461bcd60e51b8152600401610560906124e9565b8367ffffffffffffffff8111801561080357600080fd5b5060405190808252806020026020018201604052801561083d57816020015b61082a611edc565b8152602001906001900390816108225790505b50925060005b8481101561089857600061085984888401611178565b905060405180604001604052808281526020016108758361118f565b81525085838151811061088457fe5b602090810291909101015250600101610843565b5050509392505050565b60006108ac6113f5565b90506001600160a01b0381166108eb576001600160a01b037fb53127684a568b3173ae13b9f8a6016e243e63b6e8ee1178d6a717850b5d610355610900565b336001600160a01b0382161461090057600080fd5b6005805473ffffffffffffffffffffffffffffffffffffffff19166001600160a01b0386811691909117918290556040519116906000907ff25c6226b06a6bf4b2c2391bb66962bb4290c323cf8b5814efb185aba3f42d5f908290a350505050565b61062e83838360405180602001604052806000815250610ce6565b600061099561099060016000540361141a565b611448565b90506109a082611476565b604051339082156108fc029083906000818181858888f193505050501580156109cd573d6000803e3d6000fd5b50604051819083907fcec1bae6e024d929f2929f3478ce70f55f9c636c8ef7b5073a61d7c3a432451b90600090a35050565b6000610a0a82610fcf565b90506001600160a01b0381166104dc5760405162461bcd60e51b81526004016105609061247b565b6005546001600160a01b0316338114610a5d5760405162461bcd60e51b8152600401610560906127c9565b6005805473ffffffffffffffffffffffffffffffffffffffff19166001600160a01b0384811691821790925560405190918316907ff25c6226b06a6bf4b2c2391bb66962bb4290c323cf8b5814efb185aba3f42d5f90600090a35050565b60006001600160a01b038216610ae35760405162461bcd60e51b8152600401610560906126ed565b6001600160a01b03821660009081526002602052604090206104d990611184565b7f000000000000000000000000000000000000000000000000000000000000000081565b60408051808201909152600681527f4249544d41500000000000000000000000000000000000000000000000000000602082015290565b6000610b6c60005461141a565b905090565b610b7c338383611598565b5050565b600080610b8e60005461141a565b905080341015610bb05760405162461bcd60e51b8152600401610560906124b2565b600084604051602001610bc39190612230565b6040516020818303038152906040528051906020012090506000610bf085610bea84611627565b90611657565b9050610c05816001600160a01b0316876116a2565b6000610c1084611448565b8403905060018115610c47576005546040516001600160a01b039091169083156108fc029084906000818181858888f19450505050505b801580610c5357508434115b15610c9c57336108fc8215610c69576000610c6b565b835b873403019081150290604051600060405180830381858888f19350505050158015610c9a573d6000803e3d6000fd5b505b60405185906001600160a01b038516907f8a9dcf4e150b1153011b29fec302d5be0c13e84fa8f56ab78587f778a32a90dd90600090a350506001600160a01b031695945050505050565b600080610cf284610f97565b90925090506001600160a01b038216610d1d5760405162461bcd60e51b81526004016105609061257d565b856001600160a01b0316826001600160a01b031614610d4e5760405162461bcd60e51b815260040161056090612724565b6001600160a01b038516610d745760405162461bcd60e51b81526004016105609061267f565b336001600160a01b03871614610df0576001600160a01b038616600090815260036020908152604080832033845290915290205460ff1680610dd45750808015610dd457506000848152600460205260409020546001600160a01b031633145b610df05760405162461bcd60e51b81526004016105609061275b565b610dfb8686866110e3565b610e0d856001600160a01b031661176c565b15610e3b57610e1f3387878787611772565b610e3b5760405162461bcd60e51b8152600401610560906125b4565b505050505050565b60606000610e5083610fcf565b90506001600160a01b038116610e785760405162461bcd60e51b815260040161056090612800565b610e818361118f565b9392505050565b6001600160a01b03918216600090815260036020908152604080832093909416825291909152205460ff1690565b60007f01ffc9a7000000000000000000000000000000000000000000000000000000007fffffffff0000000000000000000000000000000000000000000000000000000083161480610f4957507f80ac58cd000000000000000000000000000000000000000000000000000000007fffffffff000000000000000000000000000000000000000000000000000000008316145b806104d95750507fffffffff00000000000000000000000000000000000000000000000000000000167f780e9d63000000000000000000000000000000000000000000000000000000001490565b600090815260016020526040902054907f80000000000000000000000000000000000000000000000000000000000000008083161490565b6000818152600160205260409020546001600160a01b0381166104dc5760405162461bcd60e51b8152600401610560906126b6565b6001600160a01b0382166110315760008181526001602052604090206001600160a01b038416905561109d565b60008181526001602090815260408083206001600160a01b038781167f8000000000000000000000000000000000000000000000000000000000000000179091556004909252909120805473ffffffffffffffffffffffffffffffffffffffff19169184169190911790555b80826001600160a01b0316846001600160a01b03167f8c5be1e5ebec7d5bd14f71427d1e84f3dd0314c0f7b2291e5b200ac8c7c3b92560405160405180910390a4505050565b6001600160a01b03831660009081526002602052604090206111059082611849565b506001600160a01b03821660009081526002602052604090206111289082611855565b506000818152600160205260408082206001600160a01b03808616918290559151849391928716917fddf252ad1be2c89b69c2b068fc378daa952ba7f163c4a11628f55a4df523b3ef91a4505050565b600061079b8383611861565b60006104d9826118a6565b606080604051806103e001604052806103a381526020016128876103a3913990506111bc816049856118aa565b60005b60288110156113ee57600060108260280360040286901c816111dd57fe5b06905060ff81166111ec575060105b60006112187f235781235678234567834567845678567867878800000000000000000000000084611965565b905060006112447d01111111222222233333344444555566677800000000000000000000000085611965565b905061126485610200600484046002028560118602010160010186611979565b8082146113365761128985610200600485046002028460118702010160010186611979565b600881146112af576112af85610200600485046002026011858103908702010186611979565b600882146112e8576112e885610200600460018660110303816112ce57fe5b046002028460116001886011030302010160010186611979565b600882148015906112fa575060088114155b1561133657611336856102006004600186601103038161131657fe5b046002026001856011030360116001886011030302010160010186611979565b6008821461135c5761135c85610200600484046002026011868103908602010186611979565b6008811461139557611395856102006004600185601103038161137b57fe5b046002028560116001876011030302010160010186611979565b600882148015906113a7575060088114155b156113e3576113e385610200600460018560110303816113c357fe5b046002026001866011030360116001876011030302010160010186611979565b5050506001016111bf565b5092915050565b7fb53127684a568b3173ae13b9f8a6016e243e63b6e8ee1178d6a717850b5d61035490565b66038d7ea4c68000027f00000000000000000000000000000000000000000000000000000000000000000190565b6127107f00000000000000000000000000000000000000000000000000000000000000008103919091020490565b600081815260016020526040902054806114a25760405162461bcd60e51b8152600401610560906126b6565b7f40000000000000000000000000000000000000000000000000000000000000008116156114e25760405162461bcd60e51b8152600401610560906123b0565b80336001600160a01b0382161461150b5760405162461bcd60e51b815260040161056090612724565b6001600160a01b038116600090815260026020526040902061152d9084611849565b506000838152600160205260408082207f4000000000000000000000000000000000000000000000000000000000000000905581546000190182555184919033907fddf252ad1be2c89b69c2b068fc378daa952ba7f163c4a11628f55a4df523b3ef908390a4505050565b6001600160a01b038381166000818152600360209081526040808320948716808452949091529081902080547fffffffffffffffffffffffffffffffffffffffffffffffffffffffffffffff0016851515179055517f17307eab39ab6107e8899845ad3d59bd9653f200f220920489ca2b5937696c319061161a90859061233d565b60405180910390a3505050565b60008160405160200161163a91906121ff565b604051602081830303815290604052805190602001209050919050565b6000815160411461167a5760405162461bcd60e51b815260040161056090612444565b60208201516040830151606084015160001a61169886828585611b78565b9695505050505050565b6001600160a01b0381166116c85760405162461bcd60e51b81526004016105609061267f565b60008281526001602052604090205480156116f55760405162461bcd60e51b815260040161056090612792565b6001600160a01b03821660009081526002602052604090206117179084611855565b5060008381526001602081905260408083206001600160a01b0386169081905583549092018355518592907fddf252ad1be2c89b69c2b068fc378daa952ba7f163c4a11628f55a4df523b3ef908290a4505050565b3b151590565b600080846001600160a01b031663150b7a02888887876040518563ffffffff1660e01b81526004016117a7949392919061229a565b602060405180830381600087803b1580156117c157600080fd5b505af11580156117d5573d6000803e3d6000fd5b505050506040513d601f19601f820116820180604052508101906117f99190612180565b7fffffffff00000000000000000000000000000000000000000000000000000000167f150b7a02000000000000000000000000000000000000000000000000000000001491505095945050505050565b600061079b8383611c6e565b600061079b8383611d34565b815460009082106118845760405162461bcd60e51b8152600401610560906123e7565b82600001828154811061189357fe5b9060005260206000200154905092915050565b5490565b801561062e576040805180820190915260108082527f303132333435363738396162636465660000000000000000000000000000000060208301528206815181106118f157fe5b016020015183516000198401937fff00000000000000000000000000000000000000000000000000000000000000909216918591811061192d57fe5b60200101907effffffffffffffffffffffffffffffffffffffffffffffffffffffffffffff1916908160001a905350601090046118aa565b600460019190910102610100031c600f1690565b60006006600884020484019050600060066008850206905060006119ce8784815181106119a257fe5b01602001517fff0000000000000000000000000000000000000000000000000000000000000016611d7e565b905060ff8216611a9b576119e8603f600286901c16611e3a565b8784815181106119f457fe5b60200101907effffffffffffffffffffffffffffffffffffffffffffffffffffffffffffff1916908160001a9053506000611a378885600101815181106119a257fe5b9050611a57600f821660048060ff89165b0660ff16901b1760ff16611e3a565b888560010181518110611a6657fe5b60200101907effffffffffffffffffffffffffffffffffffffffffffffffffffffffffffff1916908160001a90535050611b6f565b8160ff1660021415611b2457611abf8160301660048660ff16901c1760ff16611e3a565b878481518110611acb57fe5b60200101907effffffffffffffffffffffffffffffffffffffffffffffffffffffffffffff1916908160001a9053506000611b0e8885600101815181106119a257fe5b9050611a57600382166002601060ff8916611a48565b611b30603f8516611e3a565b878460010181518110611b3f57fe5b60200101907effffffffffffffffffffffffffffffffffffffffffffffffffffffffffffff1916908160001a9053505b50505050505050565b60007f7fffffffffffffffffffffffffffffff5d576e7357a4501ddfe92f46681b20a0821115611bba5760405162461bcd60e51b815260040161056090612520565b8360ff16601b1480611bcf57508360ff16601c145b611beb5760405162461bcd60e51b8152600401610560906125eb565b600060018686868660405160008152602001604052604051611c109493929190612348565b6020604051602081039080840390855afa158015611c32573d6000803e3d6000fd5b5050604051601f1901519150506001600160a01b038116611c655760405162461bcd60e51b815260040161056090612379565b95945050505050565b60008181526001830160205260408120548015611d2a5783546000198083019190810190600090879083908110611ca157fe5b9060005260206000200154905080876000018481548110611cbe57fe5b600091825260208083209091019290925582815260018981019092526040902090840190558654879080611cee57fe5b6001900381819060005260206000200160009055905586600101600087815260200190815260200160002060009055600194505050505061079e565b600091505061079e565b6000611d408383611ec4565b611d765750815460018181018455600084815260208082209093018490558454848252828601909352604090209190915561079e565b50600061079e565b6000602b60f883901c1415611d955750603e6104dc565b602f60f883901c1415611daa5750603f6104dc565b603060f883901c10801590611dc45750603960f883901c11155b15611dd75750600460f882901c016104dc565b604160f883901c10801590611df15750605a60f883901c11155b15611e045760418260f81c0390506104dc565b605a60f883901c10801590611e1e5750607a60f883901c11155b15611e325750603f1960f882901c016104dc565b506000919050565b600060208262ffffff1610611e89577f6768696a6b6c6d6e6f707172737475767778797a303132333435363738392b2f62ffffff601f1984011660208110611e7e57fe5b1a60f81b90506104dc565b7f4142434445464748494a4b4c4d4e4f505152535455565758595a61626364656662ffffff831660208110611eba57fe5b1a60f81b92915050565b60009081526001919091016020526040902054151590565b604051806040016040528060008152602001606081525090565b600082601f830112611f06578081fd5b813567ffffffffffffffff80821115611f1d578283fd5b6040516020601f19601f8501168201018181108382111715611f3d578485fd5b604052828152925082848301602001861015611f5857600080fd5b8260208601602083013760006020848301015250505092915050565b600060208284031215611f85578081fd5b8135610e8181612840565b600080600060608486031215611fa4578182fd5b8335611faf81612840565b95602085013595506040909401359392505050565b60008060408385031215611fd6578182fd5b8235611fe181612840565b91506020830135611ff181612840565b809150509250929050565b600080600060608486031215612010578283fd5b833561201b81612840565b9250602084013561202b81612840565b929592945050506040919091013590565b60008060008060808587031215612051578081fd5b843561205c81612840565b9350602085013561206c81612840565b925060408501359150606085013567ffffffffffffffff81111561208e578182fd5b61209a87828801611ef6565b91505092959194509250565b600080604083850312156120b8578182fd5b82356120c381612840565b915060208301358015158114611ff1578182fd5b600080604083850312156120e9578182fd5b82356120f481612840565b9150602083013567ffffffffffffffff81111561210f578182fd5b61211b85828601611ef6565b9150509250929050565b60008060408385031215612137578182fd5b823561214281612840565b946020939093013593505050565b600080600060608486031215611fa4578283fd5b600060208284031215612175578081fd5b8135610e8181612858565b600060208284031215612191578081fd5b8151610e8181612858565b6000602082840312156121ad578081fd5b5035919050565b60008151808452815b818110156121d9576020818501810151868301820152016121bd565b818111156121ea5782602083870101525b50601f01601f19169290920160200192915050565b7f19457468657265756d205369676e6564204d6573736167653a0a3332000000008152601c810191909152603c0190565b7f4269746d61700000000000000000000000000000000000000000000000000000815260609190911b7fffffffffffffffffffffffffffffffffffffffff000000000000000000000000166006820152601a0190565b6001600160a01b0391909116815260200190565b60006001600160a01b0380871683528086166020840152508360408301526080606083015261169860808301846121b4565b60208082528251828201819052600091906040908185019080840286018301878501865b8381101561232f57888303603f1901855281518051845287015187840187905261231c878501826121b4565b95880195935050908601906001016122f0565b509098975050505050505050565b901515815260200190565b93845260ff9290921660208401526040830152606082015260800190565b60006020825261079b60208301846121b4565b60208082526018908201527f45434453413a20696e76616c6964207369676e61747572650000000000000000604082015260600190565b6020808252600d908201527f414c5245414459204255524e5400000000000000000000000000000000000000604082015260600190565b60208082526022908201527f456e756d657261626c655365743a20696e646578206f7574206f6620626f756e60408201527f6473000000000000000000000000000000000000000000000000000000000000606082015260800190565b6020808252601f908201527f45434453413a20696e76616c6964207369676e6174757265206c656e67746800604082015260600190565b60208082526011908201527f4e4f4e4558495354414e545f544f4b454e000000000000000000000000000000604082015260600190565b6020808252600e908201527f4e4f545f454e4f5547485f455448000000000000000000000000000000000000604082015260600190565b60208082526018908201527f544f4f5f4d414e595f544f4b454e5f5245515545535445440000000000000000604082015260600190565b60208082526022908201527f45434453413a20696e76616c6964207369676e6174757265202773272076616c60408201527f7565000000000000000000000000000000000000000000000000000000000000606082015260800190565b60208082526011908201527f4e4f4e4558495354454e545f544f4b454e000000000000000000000000000000604082015260600190565b60208082526018908201527f4552433732315f5452414e534645525f52454a45435445440000000000000000604082015260600190565b60208082526022908201527f45434453413a20696e76616c6964207369676e6174757265202776272076616c60408201527f7565000000000000000000000000000000000000000000000000000000000000606082015260800190565b60208082526015908201527f554e415554484f52495a45445f415050524f56414c0000000000000000000000604082015260600190565b60208082526012908201527f4e4f545f544f5f5a45524f414444524553530000000000000000000000000000604082015260600190565b60208082526009908201527f4e4f545f45584953540000000000000000000000000000000000000000000000604082015260600190565b60208082526012908201527f5a45524f5f414444524553535f4f574e45520000000000000000000000000000604082015260600190565b60208082526009908201527f4e4f545f4f574e45520000000000000000000000000000000000000000000000604082015260600190565b60208082526015908201527f554e415554484f52495a45445f5452414e534645520000000000000000000000604082015260600190565b6020808252600e908201527f414c52454144595f4d494e544544000000000000000000000000000000000000604082015260600190565b6020808252600e908201527f4e4f545f415554484f52495a4544000000000000000000000000000000000000604082015260600190565b6020808252600a908201527f4e4f545f45584953545300000000000000000000000000000000000000000000604082015260600190565b90815260200190565b6001600160a01b038116811461285557600080fd5b50565b7fffffffff000000000000000000000000000000000000000000000000000000008116811461285557600080fdfe646174613a746578742f706c61696e2c7b226e616d65223a224269746d617020307830303030303030303030303030303030303030303030303030303030303030303030303030303030222c226465736372697074696f6e223a2241204269746d6170222c22696d616765223a22646174613a696d6167652f7376672b786d6c2c3c73766720786d6c6e733d27687474703a2f2f7777772e77332e6f72672f323030302f737667272073686170652d72656e646572696e673d2763726973704564676573272077696474683d2735313227206865696768743d27353132273e3c67207472616e73666f726d3d277363616c6528363429273e3c696d6167652077696474683d273827206865696768743d273827207374796c653d27696d6167652d72656e646572696e673a20706978656c617465643b2720687265663d27646174613a696d6167652f6769663b6261736536342c52306c474f44646845514152414d5141414141414150622b592f37454a664e334e4e41525155554b4c4730624d73523153756a4b715737775177652f645142636d516545716a4452305567586f34413076726c713241414141414141414141414141414141414141414141414141414141414141414141414141414141414141414141414141414141414141414141414143483542416b4b414141414c414141414141524142454141416446674141414141414141414141414141414141414141414141414141414141414141414141414141414141414141414141414141414141414141414141414141414141414141414141414141414141414141414141414141414141414152594141414141414141414141414141414141414141414141414141414141414141414141414141414141414141414141414141414141414141414141414141414141414141414141414141414141414141414141414141414141414145574141414141414141414141414141414141414141414141414141414141414141414141414141414141414141414141414141414141414141414141414141414141414141414141414141414141414141414141414141414141414142466741414141414141414141414141414141414141414141414141414141414141414141414141414141414141414141414141414141414141414141414141414141414141414141414141414141414141414141414141414141414141456f41414141414141414141414141414141414141414141414147424144733d272f3e3c2f673e3c2f7376673e227da2646970667358221220aa5cc4898184628b67bb05d7e62f8ef6ee7e6413750ee0efd5f91e458fad639d64736f6c63430007010033b53127684a568b3173ae13b9f8a6016e243e63b6e8ee1178d6a717850b5d6103",
  "devdoc": {
    "kind": "dev",
    "methods": {
      "approve(address,uint256)": {
        "params": {
          "id": "The id of the token.",
          "operator": "The address receiving the approval."
        }
      },
      "balanceOf(address)": {
        "params": {
          "owner": "The address to look for."
        },
        "returns": {
          "balance": "The number of tokens owned by the address."
        }
      },
      "getApproved(uint256)": {
        "params": {
          "id": "The id of the token."
        },
        "returns": {
          "_0": "The address of the operator."
        }
      },
      "isApprovedForAll(address,address)": {
        "params": {
          "operator": "The address of the operator.",
          "owner": "The address of the owner."
        },
        "returns": {
          "isOperator": "The status of the approval."
        }
      },
      "ownerOf(uint256)": {
        "params": {
          "id": "The id of the token."
        },
        "returns": {
          "owner": "The address of the token owner."
        }
      },
      "safeTransferFrom(address,address,uint256)": {
        "params": {
          "from": "The send of the token.",
          "id": "The id of the token.",
          "to": "The recipient of the token."
        }
      },
      "safeTransferFrom(address,address,uint256,bytes)": {
        "params": {
          "data": "Additional data.",
          "from": "The sender of the token.",
          "id": "The id of the token.",
          "to": "The recipient of the token."
        }
      },
      "setApprovalForAll(address,bool)": {
        "params": {
          "approved": "The determination of the approval.",
          "operator": "The address receiving the approval."
        }
      },
      "supportsInterface(bytes4)": {
        "params": {
          "id": "The id of the interface."
        },
        "returns": {
          "_0": "Whether the interface is supported."
        }
      },
      "transferFrom(address,address,uint256)": {
        "params": {
          "from": "The sender of the token.",
          "id": "The id of the token.",
          "to": "The recipient of the token."
        }
      }
    },
    "version": 1
  },
  "userdoc": {
    "kind": "user",
    "methods": {
      "approve(address,uint256)": {
        "notice": "Approve an operator to spend tokens on the senders behalf."
      },
      "balanceOf(address)": {
        "notice": "Get the number of tokens owned by an address."
      },
      "getApproved(uint256)": {
        "notice": "Get the approved operator for a specific token."
      },
      "isApprovedForAll(address,address)": {
        "notice": "Check if the sender approved the operator."
      },
      "name()": {
        "notice": "A descriptive name for a collection of NFTs in this contract"
      },
      "ownerOf(uint256)": {
        "notice": "Get the owner of a token."
      },
      "safeTransferFrom(address,address,uint256)": {
        "notice": "Transfer a token between 2 addresses letting the receiver know of the transfer."
      },
      "safeTransferFrom(address,address,uint256,bytes)": {
        "notice": "Transfer a token between 2 addresses letting the receiver knows of the transfer."
      },
      "setApprovalForAll(address,bool)": {
        "notice": "Set the approval for an operator to manage all the tokens of the sender."
      },
      "supportsInterface(bytes4)": {
        "notice": "Check if the contract supports an interface. 0x01ffc9a7 is ERC165. 0x80ac58cd is ERC721 0x5b5e139f is for ERC721 metadata 0x780e9d63 is for ERC721 enumerable"
      },
      "symbol()": {
        "notice": "An abbreviated name for NFTs in this contract"
      },
      "transferFrom(address,address,uint256)": {
        "notice": "Transfer a token between 2 addresses."
      }
    },
    "version": 1
  },
  "storageLayout": {
    "storage": [
      {
        "astId": 2354,
        "contract": "src/BitmapToken.sol:BitmapToken",
        "label": "_supply",
        "offset": 0,
        "slot": "0",
        "type": "t_uint256"
      },
      {
        "astId": 2358,
        "contract": "src/BitmapToken.sol:BitmapToken",
        "label": "_owners",
        "offset": 0,
        "slot": "1",
        "type": "t_mapping(t_uint256,t_uint256)"
      },
      {
        "astId": 2362,
        "contract": "src/BitmapToken.sol:BitmapToken",
        "label": "_holderTokens",
        "offset": 0,
        "slot": "2",
        "type": "t_mapping(t_address,t_struct(UintSet)981_storage)"
      },
      {
        "astId": 2368,
        "contract": "src/BitmapToken.sol:BitmapToken",
        "label": "_operatorsForAll",
        "offset": 0,
        "slot": "3",
        "type": "t_mapping(t_address,t_mapping(t_address,t_bool))"
      },
      {
        "astId": 2372,
        "contract": "src/BitmapToken.sol:BitmapToken",
        "label": "_operators",
        "offset": 0,
        "slot": "4",
        "type": "t_mapping(t_uint256,t_address)"
      },
      {
        "astId": 1193,
        "contract": "src/BitmapToken.sol:BitmapToken",
        "label": "creator",
        "offset": 0,
        "slot": "5",
        "type": "t_address_payable"
      }
    ],
    "types": {
      "t_address": {
        "encoding": "inplace",
        "label": "address",
        "numberOfBytes": "20"
      },
      "t_address_payable": {
        "encoding": "inplace",
        "label": "address payable",
        "numberOfBytes": "20"
      },
      "t_array(t_bytes32)dyn_storage": {
        "base": "t_bytes32",
        "encoding": "dynamic_array",
        "label": "bytes32[]",
        "numberOfBytes": "32"
      },
      "t_bool": {
        "encoding": "inplace",
        "label": "bool",
        "numberOfBytes": "1"
      },
      "t_bytes32": {
        "encoding": "inplace",
        "label": "bytes32",
        "numberOfBytes": "32"
      },
      "t_mapping(t_address,t_bool)": {
        "encoding": "mapping",
        "key": "t_address",
        "label": "mapping(address => bool)",
        "numberOfBytes": "32",
        "value": "t_bool"
      },
      "t_mapping(t_address,t_mapping(t_address,t_bool))": {
        "encoding": "mapping",
        "key": "t_address",
        "label": "mapping(address => mapping(address => bool))",
        "numberOfBytes": "32",
        "value": "t_mapping(t_address,t_bool)"
      },
      "t_mapping(t_address,t_struct(UintSet)981_storage)": {
        "encoding": "mapping",
        "key": "t_address",
        "label": "mapping(address => struct EnumerableSet.UintSet)",
        "numberOfBytes": "32",
        "value": "t_struct(UintSet)981_storage"
      },
      "t_mapping(t_bytes32,t_uint256)": {
        "encoding": "mapping",
        "key": "t_bytes32",
        "label": "mapping(bytes32 => uint256)",
        "numberOfBytes": "32",
        "value": "t_uint256"
      },
      "t_mapping(t_uint256,t_address)": {
        "encoding": "mapping",
        "key": "t_uint256",
        "label": "mapping(uint256 => address)",
        "numberOfBytes": "32",
        "value": "t_address"
      },
      "t_mapping(t_uint256,t_uint256)": {
        "encoding": "mapping",
        "key": "t_uint256",
        "label": "mapping(uint256 => uint256)",
        "numberOfBytes": "32",
        "value": "t_uint256"
      },
      "t_struct(Set)595_storage": {
        "encoding": "inplace",
        "label": "struct EnumerableSet.Set",
        "members": [
          {
            "astId": 590,
            "contract": "src/BitmapToken.sol:BitmapToken",
            "label": "_values",
            "offset": 0,
            "slot": "0",
            "type": "t_array(t_bytes32)dyn_storage"
          },
          {
            "astId": 594,
            "contract": "src/BitmapToken.sol:BitmapToken",
            "label": "_indexes",
            "offset": 0,
            "slot": "1",
            "type": "t_mapping(t_bytes32,t_uint256)"
          }
        ],
        "numberOfBytes": "64"
      },
      "t_struct(UintSet)981_storage": {
        "encoding": "inplace",
        "label": "struct EnumerableSet.UintSet",
        "members": [
          {
            "astId": 980,
            "contract": "src/BitmapToken.sol:BitmapToken",
            "label": "_inner",
            "offset": 0,
            "slot": "0",
            "type": "t_struct(Set)595_storage"
          }
        ],
        "numberOfBytes": "64"
      },
      "t_uint256": {
        "encoding": "inplace",
        "label": "uint256",
        "numberOfBytes": "32"
      }
    }
  }
}